{
  "transactions": [
    {
      "hash": "0x4d8f0815ffbc292a7e3a2dbc0930d3a94eeff6891d94190ec4368a1d7f9310d4",
      "transactionType": "CALL",
      "contractName": null,
      "contractAddress": "0x52d8cb79b5f5c7eab2141278c29a1c264c9dd405",
      "function": "mint(string)",
      "arguments": [
        "ipfs://test-token-uri"
      ],
      "transaction": {
        "from": "0x2cac89abf06dbe5d3a059517053b7144074e1ce5",
        "to": "0x52d8cb79b5f5c7eab2141278c29a1c264c9dd405",
        "gas": "0x4fff8",
        "value": "0x0",
        "input": "0xd85d3d2700000000000000000000000000000000000000000000000000000000000000200000000000000000000000000000000000000000000000000000000000000015697066733a2f2f746573742d746f6b656e2d7572690000000000000000000000",
        "nonce": "0x3",
        "chainId": "0x1fa72e78",
        "zksync": {
          "factoryDeps": [],
          "paymasterData": {
            "paymaster": "0x98546b226dbba8230cf620635a1e4ab01f6a99b2",
            "paymasterInput": [
              140,
              90,
              52,
              69,
              0,
              0,
              0,
              0,
              0,
              0,
              0,
              0,
              0,
              0,
              0,
              0,
              0,
              0,
              0,
              0,
              0,
              0,
              0,
              0,
              0,
              0,
              0,
              0,
              0,
              0,
              0,
              0,
              0,
              0,
              0,
              32,
              0,
              0,
              0,
              0,
              0,
              0,
              0,
              0,
              0,
              0,
              0,
              0,
              0,
              0,
              0,
              0,
              0,
              0,
              0,
              0,
              0,
              0,
              0,
              0,
              0,
              0,
              0,
              0,
              0,
              0,
              0,
              2,
              48,
              120,
              0,
              0,
              0,
              0,
              0,
              0,
              0,
              0,
              0,
              0,
              0,
              0,
              0,
              0,
              0,
              0,
              0,
              0,
              0,
              0,
              0,
              0,
              0,
              0,
              0,
              0,
              0,
              0,
              0,
              0
            ]
          }
        }
      },
      "additionalContracts": [],
      "isFixedGasLimit": false
    }
  ],
  "receipts": [
    {
      "status": "0x1",
      "cumulativeGasUsed": "0x0",
      "logs": [
        {
          "address": "0x000000000000000000000000000000000000800a",
          "topics": [
            "0xddf252ad1be2c89b69c2b068fc378daa952ba7f163c4a11628f55a4df523b3ef",
            "0x00000000000000000000000098546b226dbba8230cf620635a1e4ab01f6a99b2",
            "0x0000000000000000000000000000000000000000000000000000000000008001"
          ],
          "data": "0x000000000000000000000000000000000000000000000000047f02ad58721dbe",
          "blockHash": "0xe93e3983b9a3cabf6ce9e0591dc013eaf1b845d9aa89fd8beb77cbbf5bda120c",
          "blockNumber": "0x9e184",
          "blockTimestamp": "0x67c4da98",
          "transactionHash": "0x4d8f0815ffbc292a7e3a2dbc0930d3a94eeff6891d94190ec4368a1d7f9310d4",
          "transactionIndex": "0x0",
          "logIndex": "0x0",
          "removed": false
        },
        {
          "address": "0x52d8cb79b5f5c7eab2141278c29a1c264c9dd405",
          "topics": [
            "0xddf252ad1be2c89b69c2b068fc378daa952ba7f163c4a11628f55a4df523b3ef",
            "0x0000000000000000000000000000000000000000000000000000000000000000",
            "0x0000000000000000000000002cac89abf06dbe5d3a059517053b7144074e1ce5",
            "0x0000000000000000000000000000000000000000000000000000000000000000"
          ],
          "data": "0x",
          "blockHash": "0xe93e3983b9a3cabf6ce9e0591dc013eaf1b845d9aa89fd8beb77cbbf5bda120c",
          "blockNumber": "0x9e184",
          "blockTimestamp": "0x67c4da98",
          "transactionHash": "0x4d8f0815ffbc292a7e3a2dbc0930d3a94eeff6891d94190ec4368a1d7f9310d4",
          "transactionIndex": "0x0",
          "logIndex": "0x1",
          "removed": false
        },
        {
          "address": "0x52d8cb79b5f5c7eab2141278c29a1c264c9dd405",
          "topics": [
            "0xf8e1a15aba9398e019f0b49df1a4fde98ee17ae345cb5f6b5e2c27f5033e8ce7"
          ],
          "data": "0x0000000000000000000000000000000000000000000000000000000000000000",
          "blockHash": "0xe93e3983b9a3cabf6ce9e0591dc013eaf1b845d9aa89fd8beb77cbbf5bda120c",
          "blockNumber": "0x9e184",
          "blockTimestamp": "0x67c4da98",
          "transactionHash": "0x4d8f0815ffbc292a7e3a2dbc0930d3a94eeff6891d94190ec4368a1d7f9310d4",
          "transactionIndex": "0x0",
          "logIndex": "0x2",
          "removed": false
        },
        {
          "address": "0x98546b226dbba8230cf620635a1e4ab01f6a99b2",
          "topics": [
            "0x215d0377e445a5d2a61e1f03ac60ae018d5c95089511a4ecabcb402d0f957fde"
          ],
          "data": "0x00000000000000000000000000000000000000000000000000000000000000010000000000000000000000002cac89abf06dbe5d3a059517053b7144074e1ce500000000000000000000000052d8cb79b5f5c7eab2141278c29a1c264c9dd405000000000000000000000000000000000000000000000000047f02ad58721dbe",
          "blockHash": "0xe93e3983b9a3cabf6ce9e0591dc013eaf1b845d9aa89fd8beb77cbbf5bda120c",
          "blockNumber": "0x9e184",
          "blockTimestamp": "0x67c4da98",
          "transactionHash": "0x4d8f0815ffbc292a7e3a2dbc0930d3a94eeff6891d94190ec4368a1d7f9310d4",
          "transactionIndex": "0x0",
          "logIndex": "0x3",
          "removed": false
        },
        {
          "address": "0x000000000000000000000000000000000000800a",
          "topics": [
            "0xddf252ad1be2c89b69c2b068fc378daa952ba7f163c4a11628f55a4df523b3ef",
            "0x0000000000000000000000000000000000000000000000000000000000008001",
            "0x00000000000000000000000098546b226dbba8230cf620635a1e4ab01f6a99b2"
          ],
          "data": "0x0000000000000000000000000000000000000000000000000258f9870711dfab",
          "blockHash": "0xe93e3983b9a3cabf6ce9e0591dc013eaf1b845d9aa89fd8beb77cbbf5bda120c",
          "blockNumber": "0x9e184",
          "blockTimestamp": "0x67c4da98",
          "transactionHash": "0x4d8f0815ffbc292a7e3a2dbc0930d3a94eeff6891d94190ec4368a1d7f9310d4",
          "transactionIndex": "0x0",
          "logIndex": "0x4",
          "removed": false
        }
      ],
      "logsBloom": "0x00100000000400000000000000000000000000000000000000000000000000000020000000000000000000000000000000000000000000000000000000400000000000000000040000000008000000000000000000000000000000000080080000000080020000000000000000000800000000000000000000000010080000000000000002000000000004200000000000000000000000000004000000020000000000000000100000000000000000002000000000000000000000000100008000000002008000000000000000000000000000002002012000000000000020000000000000000000200000000000000000000000000000000000000000000000",
      "type": "0x71",
      "transactionHash": "0x4d8f0815ffbc292a7e3a2dbc0930d3a94eeff6891d94190ec4368a1d7f9310d4",
      "transactionIndex": "0x0",
      "blockHash": "0xe93e3983b9a3cabf6ce9e0591dc013eaf1b845d9aa89fd8beb77cbbf5bda120c",
      "blockNumber": "0x9e184",
      "gasUsed": "0x1f671",
      "effectiveGasPrice": "0x1183ff8e6c3",
      "from": "0x2cac89abf06dbe5d3a059517053b7144074e1ce5",
      "to": "0x52d8cb79b5f5c7eab2141278c29a1c264c9dd405",
      "contractAddress": null,
      "l1BatchNumber": null,
      "l1BatchTxIndex": null,
      "l2ToL1Logs": []
    }
  ],
  "libraries": [],
  "pending": [],
  "returns": {},
  "timestamp": 1740954294,
  "chain": 531050104,
  "commit": "708578a"
}